:020000040800F2
:1000000000500020D9030008290400082904000832
:100010002904000829040008290400080000000041
:10002000000000000000000000000000290400089B
:100030002904000800000000290400082904000821
:1000400029040008290400082904000829040008DC
:1000500029040008290400082904000829040008CC
:1000600029040008290400082904000829040008BC
:1000700029040008290400082904000829040008AC
:10008000290400082904000829040008290400089C
:10009000290400082904000829040008290400088C
:1000A000290400082904000829040008290400087C
:1000B000290400082904000829040008290400086C
:1000C000290400082904000829040008290400085C
:1000D000290400082904000829040008290400084C
:1000E0002904000829040008000000002904000871
:1000F000290400082904000829040008290400082C
:10010000290400082904000829040008290400081B
:10011000290400082904000829040008290400080B
:1001200029040008290400082904000829040008FB
:1001300010B5054C237833B9044B13B10448AFF321
:1001400000800123237010BD00000020000000008B
:100150007404000808B5034B1BB103490348AFF30F
:10016000008008BD000000000400002074040008A6
:10017000012928D1294B984205D1294A936943F096
:10018000040393617047274B984204D1244A936932
:1001900043F00803F5E7244B984204D1204A9369C1
:1001A00043F01003EDE7214B984204D11C4A9369B8
:1001B00043F02003E5E71E4B9842E3D1184A9369C8
:1001C00043F04003DDE70029DCD1144B984204D111
:1001D000134A936923F00403D3E7124B984204D1E6
:1001E0000F4A936923F00803CBE70F4B984204D1E1
:1001F0000B4A936923F01003C3E70C4B984204D1D8
:10020000074A936923F02003BBE7094B9842B9D111
:10021000034A936923F04003B3E700BF000801409D
:1002200000100240000C0140001001400014014089
:10023000001801402DE9F04104794779072C8ABF65
:10024000A4F10801A10089000268CDB2082F7FD86F
:10025000DFE807F067055E7E61646767670000237B
:100260008179B81F022843D80126062F484806FA8C
:1002700004F670D1876837438760C76827EA0606A7
:10028000C660444882426FD000F5806082426DD0E3
:1002900000F5806082426BD000F58060824269D0B8
:1002A00000F58060824267D000F58060824265D0B0
:1002B00000F5806082420CBF062000200F2C364ED5
:1002C0004FEA940E5CD84FF00F08B769DFF8CCC046
:1002D00047F00107B76104F003075CF82E60BF0028
:1002E00008FA07F826EA0806B84030434CF82E0012
:1002F000072C4FF00F0488BF04321068AC4041EA6D
:10030000830120EA0400A94001431160BDE8F081A7
:1003100001238179A5E702238179A2E7032381796B
:100320009FE7C379012B06D0022B0AD0B3FA83F3DF
:100330005B09002195E7D168A3400B43D3600223FA
:10034000F7E70120D168A04021EA0001D160F0E781
:100350000023194685E7072F87680CBFB74337434B
:100360008760C7683E438BE70020A7E70120A5E729
:100370000220A3E70320A1E704209FE705209DE7D3
:10038000B36943F00103B36100231B68FFDE00BFC4
:100390000004014000080140001002400800014034
:1003A0000123C2688B405340C360704707B5084CB7
:1003B000084B20460121CDE90043FFF7D9FE6846EE
:1003C000FFF738FF0D212046FFF7EAFFFAE700BFED
:1003D000001001400D0102000D488546AFF300807A
:1003E0000C480D490D4A002302E0D458C450043390
:1003F000C4188C42F9D30A4A0A4C002301E0136066
:100400000432A242FBD300F011F8FFF7CFFFFEE762
:10041000005000200000002000000020940400088C
:10042000000000201C000020FEE7000070B5002640
:100430000C4D0D4C641BA410A64209D100F01AF813
:1004400000260A4D0A4C641BA410A64205D170BDBB
:1004500055F8043B98470136EEE755F8043B9847BA
:100460000136F2E78C0400088C0400088C040008B4
:1004700090040008F8B500BFF8BC08BC9E46704761
:0C048000F8B500BFF8BC08BC9E467047F1
:04048C00550100080E
:04049000310100082E
:04000005080003D913
:00000001FF
